:020000040800F2
:1000000000000C2051830008590C00085B0C00080C
:100010005D0C00085F0C0008610C0008A18300085B
:10002000000000000000000000000000E176000871
:10003000630C00080000000071760008D17400080D
:10004000A1830008A1830008A1830008A183000800
:10005000A1830008A1830008A1830008A1830008F0
:10006000A1830008A1830008A1830008A1830008E0
:10007000A1830008A1830008A1830008A1830008D0
:10008000A1830008A1830008A1830008A1830008C0
:10009000A1830008A1830008A1830008A1830008B0
:1000A000A1830008A1830008A1830008A1830008A0
:1000B00000000000A1830008A1830008A1830008BC
:1000C000A1830008A1830008A1830008A183000880
:1000D000A1830008A1830008A1830008A183000870
:1000E000A1830008A1830008A1830008A183000860
:1000F000A1830008A1830008A1830008A183000850
:10010000A1830008A1830008A1830008A18300083F
:10011000A1830008A1830008A1830008A18300082F
:10012000A1830008A1830008A1830008A18300081F
:10013000A1830008650C0008A1830008A1830008C2
:10014000A1830008A1830008A1830008A1830008FF
:10015000A1830008A1830008A1830008750C000892
:10016000A1830008A1830008A1830008A1830008DF
:10017000A1830008A1830008A1830008A1830008CF
:10018000A1830008A1830008850C0008950C0008D5
:10019000A1830008A1830008A1830008A1830008AF
:1001A000A1830008A1830008A1830008A18300089F
:1001B000A183000800000000A1830008A1830008BB
:1001C000A183000800000000A1830008A1830008AB
:1001D000A1830008A1830008A1830008A18300086F
:1001E000A1830008A1830008A1830008A18300085F
:1001F0000000000000000000A1830008A1830008A7
:10020000A1830008A1830008A1830008A18300083E
:10021000A1830008A1830008A1830008A18300082E
:10022000A1830008A1830008A1830008A18300081E
:08023000A1830008A18300086E
:1002400010B5054C237833B9044B13B10448AFF310
:1002500000800123237010BD180100200000000061
:100260003C27010808B5034B1BB103490348AFF312
:10027000008008BD000000001C0100203C27010890
:10028000034613F8012B002AFBD1181A01387047D6
:100290007BB972B90029BEBF00204FF0004106E0D3
:1002A00008BF00281CBF6FF000414FF0FF3000F086
:1002B000C9B9ADF1080C6DE904CE002909DB002BAA
:1002C0001ADB00F04DF8DDF804E0DDE9022304B0AC
:1002D0007047404261EB4101002B1BDB00F040F80E
:1002E000DDF804E0DDE9022304B0404261EB4101A6
:1002F000524263EB43037047524263EB430300F007
:100300002FF8DDF804E0DDE9022304B0404261EBA0
:1003100041017047524263EB430300F021F8DDF8DE
:1003200004E0DDE9022304B0524263EB430370476B
:1003300053B94AB9002908BF00281CBF4FF0FF314C
:100340004FF0FF3000F07EB9ADF1080C6DE904CE3E
:1003500000F006F8DDF804E0DDE9022304B07047A0
:100360002DE9F04F099D0C46002B4DD18A420F46D6
:1003700084469646B2FA82F360D94BB102FA03FE84
:10038000C3F120029F4000FA03FC20FA02F2174357
:100390004FEA1E461FFA8EF44FEA1C42B7FBF6F1F5
:1003A00006FB117701FB04F042EA0742904208D9AC
:1003B0001EEB020201F1FF3702D2904200F22D81C2
:1003C0003946121A1FFA8CFCB2FBF6F006FB10221B
:1003D00000FB04F44CEA024C644508D91EEB0C0CFB
:1003E00000F1FF3202D2644500F21A81104640EA61
:1003F0000140ACEB040C002125B12CFA03F30022E0
:10040000C5E90032BDE8F08F8B4205D90DB1C5E9D1
:10041000000100210846F5E7B3FA83F100294DD128
:10042000A342C0F0F280904280F0EF80064623465F
:100430000846002DE6D0C5E90063E3E7002B40F055
:10044000A2808A1A4FEA1E471FFA8EF60121B2FBDC
:10045000F7F407FB14204FEA1C4242EA004206FB75
:1004600004F090420FD91EEB020204F1FF382CBFBA
:100470004FF001094FF00009904203D9B9F1000F84
:1004800000F0C8804446121A1FFA8CFCB2FBF7F049
:1004900007FB102200FB06F64CEA024C664508D921
:1004A0001EEB0C0C00F1FF3202D2664500F2BB805D
:1004B0001046ACEB060C40EA04409DE7C1F1200673
:1004C0008B4004FA01FE22FA06F720FA06FCF440FB
:1004D0008A401F434EEA0C0300FA01FE4FEA174818
:1004E0004FEA13491FFA87FCB4FBF8F008FB1044ED
:1004F00049EA044400FB0CF9A1450ED93C1900F16E
:10050000FF3A2CBF4FF0010B4FF0000BA14503D970
:10051000BBF1000F00F093805046A4EB09041FFAD2
:1005200083F9B4FBF8F308FB134403FB0CFC49EA22
:100530000444A44506D93C1903F1FF3801D2A4456F
:100540007AD8434643EA0040A4EB0C04A0FB02988F
:100550004445CC46434602D306D1CE4504D20138A9
:10056000B9EB020C68EB07035DB1BEEB0C0264EB68
:10057000030404FA06F622FA01F3CC401E43C5E94F
:10058000006400213EE702FA03FEC3F1200104FAF1
:1005900003F200FA03FCCC404FEA1E4720FA01F1B7
:1005A0001FFA8EF6B4FBF7F00A4307FB1044110C58
:1005B00041EA044100FB06F48C420ED91EEB010116
:1005C00000F1FF382CBF4FF001094FF000098C42B9
:1005D00002D9B9F1000F2CD04046091B92B2B1FBF1
:1005E000F7F407FB141142EA014204FB06F19142C1
:1005F00007D91EEB020204F1FF3801D2914215D84F
:100600004446521A44EA004121E7861A64EB030388
:1006100001200EE7023C724435E702397244D0E60D
:10062000F4440238E3E6F444023842E7023C724400
:10063000E7E702387144D0E7023B3C4482E70238E6
:100640003C446AE7704700BF10F8012B11F8013BEA
:10065000012A28BF9A42F7D0D01A704700B5A5B03A
:100660002B4B01932B4B00932B4B2C4A2C490120F5
:1006700009F06AF81FA808F0E5FF2A4B1F932A4BE0
:1006800020932A4B21932A4B22931FA808F0EAFFBC
:1006900028B302A809F004F80DF12C0E0DF1080C96
:1006A000BCE80F00AEE80F00DCF80030CEF80030F8
:1006B0000BAB0022114610A808F002FF10AB1D4A38
:1006C0001D4909A808F046FF09F0BEFC02461B4B75
:1006D00009A91EA808F07AFF00231D9310E04FF42B
:1006E0009071174807F020FFD3E740F241111548F9
:1006F00007F01AFF1D9B01331D930A2007F0B7FB7B
:1007000000221DA91EA808F0B7FE0028EDD1F1E7D0
:10071000D98200089F82000891820008798200082F
:100720006402002011810008318100085181000815
:1007300091810008EC2D01088C27010898270108F9
:1007400064270108AC27010808B50268034B9A42E8
:1007500000D008BD00F034FBFBE700BF00480140BB
:1007600072B6FEE708B504F08BFC04F091FC0220A1
:1007700004F050FC00B908BDFFF7F2FF00B59FB0D0
:100780006022002106A807F024FF002000900190BD
:10079000029003900490059004F0E4FBE0B910236C
:1007A000069301220D920E934FF080430F93002386
:1007B000149306A800F0D0FD80B91F2300930021F8
:1007C00001910291039104910591684600F02AFC81
:1007D00030B91FB05DF804FBFFF7C2FFFFF7C0FFA1
:1007E000FFF7BEFF08B500F0C1FAFFF7C7FFFFF73C
:1007F000B9FF00F01BF800F0DBF800F0FDF800F0A6
:100800000BF907F0A1FA064A0021064807F0DAFAC8
:10081000054B186010B107F0B1FAFEE7FFF7A0FF33
:10082000D42701085D060008340100202DE9F047B7
:100830008AB0002405940694079408940994574BB1
:10084000D3F88C2042F00402C3F88C20D3F88C201B
:1008500002F004020092009AD3F88C2042F0800249
:10086000C3F88C20D3F88C2002F080020192019A08
:10087000D3F88C2042F00202C3F88C20D3F88C20ED
:1008800002F002020292029AD3F88C2042F0400257
:10089000C3F88C20D3F88C2002F040020392039A14
:1008A000D3F88C2042F00102C3F88C20D3F88C30AE
:1008B00003F001030493049BDFF8F0A02246042117
:1008C000504603F089FB364E22468021304603F025
:1008D00083FB344D2246A021284603F07DFB4FF4D4
:1008E00000530593304B0693079405A9304603F057
:1008F00065FA042705974FF00308CDF81880079490
:1009000005A9304603F05AFA4FF480430593069444
:10091000079405A9284603F051FA4FF40049CDF891
:100920001490CDF81880079405A9284603F046FADC
:100930000597012706970794089405A9504603F0E8
:100940003DFA8023059306970794089405A930463D
:1009500003F034FA4FF4C05305930223069307942F
:1009600008940A230993A6F5006605A9304603F00A
:1009700025FACDF81490CDF81880079405A93046D3
:1009800003F01CFAA023059306970794089405A981
:10099000284603F013FA0AB0BDE8F087000C0246BF
:1009A0000008024200040242000011100018024236
:1009B00000B583B00F4BD3F8882042F00102C3F892
:1009C0008820D3F8883003F001030193019B0022B3
:1009D0001146522003F0A0F9522003F0ADF9002295
:1009E0001146532003F098F9532003F0A5F903B002
:1009F0005DF804FB000C024608B5002004F050FB33
:100A000018B904F05FFB18B908BDFFF7A9FEF8E7B5
:100A1000FFF7A6FEF8E7000008B51748174B03607C
:100A20004FF4E133436000238360C36003610C2211
:100A300042618361C36103624362836205F0E5FA48
:100A400070B900210C4805F006FC60B900210A4885
:100A500005F026FC50B9084805F0DEFB48B908BD92
:100A6000FFF77EFEEDE7FFF77BFEEFE7FFF778FE8F
:100A7000F1E7FFF775FEF2E764020020003801405D
:100A800030B5D3B0054600244D944E944F94509405
:100A900051946C22214632A807F09BFDC0222146CA
:100AA00002A807F096FD2A68624B9A4201D053B023
:100AB00030BD01220023CDE9022302A801F0D2FAC1
:100AC000002840F09B805C4BD3F8A42042F4804285
:100AD000C3F8A420D3F8A42002F480420092009A24
:100AE000D3F88C2042F00102C3F88C20D3F88C306C
:100AF00003F001030193019B4FF4C0634D93022364
:100B00004E9300244F945094072351934DA94B4882
:100B100003F054F94A484B4B036019234360846047
:100B20004FF48063C3600823036144618461C4613E
:100B30004FF440030362012343628362C46204638F
:100B4000446303F005FC00285BD13D48E867C565B8
:100B5000102103F0B2FD002856D12123329318232F
:100B6000339300233493359336934FF40022379216
:100B70003893399301223B923C924FF040223D92B0
:100B80003E933F934393409341932F4932A804F0FF
:100B9000ADF800283BD12C4A00212C4804F0B1F8D4
:100BA000002837D1294804F038F9002835D12848E1
:100BB000284B03604FF4400383630023C3634FF467
:100BC0000032026443648123836403F0F9FF38BB7D
:100BD0001E491F4804F062F928BB1D48C5F8800073
:100BE000C565102103F069FD00BB002211463D20C0
:100BF00003F092F83D2003F09FF858E7FFF7B0FDAF
:100C000061E7FFF7ADFDA0E7FFF7AAFDA5E7FFF756
:100C1000A7FDC0E7FFF7A4FDC4E7FFF7A1FDC6E706
:100C2000FFF79EFDD4E7FFF79BFDD6E7FFF798FDA2
:100C3000DBE700BF00380140000C02460000024222
:100C4000EC010020D0050240C8010020B0010020C6
:100C50003801002050050240FEE7FEE7FEE7FEE710
:100C6000FEE7704708B5024804F004FE08BD00BF67
:100C70006402002008B5024804F09AFA08BD00BFDB
:100C8000F802002008B5024803F03CFC08BD00BF94
:100C90003801002008B5024803F034FC08BD00BF4D
:100CA000EC01002000B583B0094BD3F8942042F04A
:100CB0000402C3F89420D3F8943003F004030193A2
:100CC000019B042003F016F803B05DF804FB00BF9D
:100CD000000C024630B589B004461F4BD3F8A4205F
:100CE00042F48022C3F8A420D3F8A43003F4802374
:100CF0000093009B01A902A801F0AEF801F08CF866
:100D0000164AA2FB00239B0C013B1548154A0260C2
:100D100040F2E732C260436000230361836004F065
:100D2000F7FB054628B1472003F006F8284609B02E
:100D300030BD0B4804F0D2F905460028F3D10F2C42
:100D400001D90125EFE700222146472002F0E4FF08
:100D5000054B1C60E7E700BF000C024683DE1B4327
:100D6000F8020020004801400400002010B5104A9D
:100D7000136843F480731360032002F0BBFF00F09C
:100D800093F80C4B1B6A03F00F030B4AD35CD8405B
:100D90000A4B1860042002F0D3FF0720FFF79AFFE8
:100DA00010B10124204610BD0446FFF77BFFF9E790
:100DB00000200240000C0246E8280108080000203C
:100DC000034B1B78034A11680B441360704700BF44
:100DD0000000002044030020014B1868704700BF4A
:100DE0004403002030B583B004462D4BD3F8943033
:100DF00013F0040F0FD004F005F9B0F5403F20D0F8
:100E0000B0F5003F1DD0B4F1805F2CD2B0F5803F2B
:100E100040D0012025E0224DD5F8943043F0040362
:100E2000C5F89430D5F8943003F004030193019B86
:100E300004F0E8F8D5F8943023F00403C5F89430B2
:100E4000DBE7B4F1805F23D20120164A136823F058
:100E50000F0303431360136803F00F0383421DD194
:100E6000002003B030BDB4F1005F05D9A0B9B4F1E2
:100E7000405FEAD80120E8E7B4F1805F01D00120AB
:100E8000E3E7B0F5803F01D00220DEE70120DCE798
:100E90000020DAE70320D8E70020D6E70120E0E7CA
:100EA000000C02460020024010B4594AD369926AED
:100EB00013F00C0310D002F003020C2B0AD0544A9A
:100EC000D26902F00C02042A20D0082B21D0002085
:100ED000044610E0012AF2D14D4A926812F4000F44
:100EE0000ED14B4AD2F8F420C2F30332494951F8EB
:100EF00022404BB100200C2B0ED05DF8044B704704
:100F0000434A9268120FF1E72046F4E74248002472
:100F1000F1E741480024EEE73D48816A01F0030112
:100F2000836AC3F30323013307EE103A836AC3F3E2
:100F3000001C836BC3F3CC030CFB03F307EE903A66
:100F4000F8EE677A02291ED0032946D006EE904AB1
:100F5000F8EE666AB8EE477A86EE876A2C4B5B6BD2
:100F6000C3F3080307EE103AB8EE477ADFED2B6AB9
:100F700067EEA67A77EE277AB7EE007A77EE877A71
:100F800066EE276A19E0B8EE477A9FED256AC6EE4D
:100F9000076A1F4B5B6BC3F3080307EE103AB8EE0A
:100FA000477A9FED1E6A67EE867A77EE277AB7EE6C
:100FB000007A77EE877A66EEA76A154B5B6BC3F310
:100FC0000663013307EE903AB8EE677AC6EE877A89
:100FD000FCEEE77A17EE900A8FE7B8EE477A9FEDBE
:100FE000106AC6EE076A0A4B5B6BC3F3080307EE91
:100FF000103AB8EE477A9FED096A67EE867A77EE87
:10100000277AB7EE007A77EE877A66EEA76AD4E79A
:10101000000C0246A02801080024F400000000395A
:101020000024744B002800F07181F0B583B00D46A8
:1010300004467F4B1B6803F00F038B420BD27C4AA4
:10104000136823F00F030B431360136803F00F03BF
:101050008B4240F05D81236813F0100F0CD0626961
:10106000744B5B6A03F070039A4205D971494B6A6D
:1010700023F070031A434A62236813F0080F0ED05E
:1010800022696C4B1B6A1B0903F070039A4206D954
:1010900068490B6A23F4E06343EA02130B62236896
:1010A00013F0040F0CD0E268624B1B6A03F070036C
:1010B0009A4205D95F490B6A23F070031A430A620A
:1010C000236813F0020F0CD0A2685A4B1B6A03F07E
:1010D0000F039A4205D957490B6A23F00F031A43AD
:1010E0000A62236813F0010F00F0A8806368032BE5
:1010F0000AD0022B61D0002B66D14E4B1B6813F037
:10110000040F26D10120FFE04A4BD3F8943013F0AE
:10111000040F0ED1474BD3F8942042F00402C3F8D9
:101120009420D3F8943003F004030193019B01272A
:1011300000E00027FFF750FE06463F4BDB6813F444
:10114000802F26D18FBB3B4B1B6813F0007F00F034
:10115000E180384AD36923F0030361680B43D3610C
:10116000FFF73AFE06466368032B34D0022B41D0CA
:10117000002B4ED02F4BDB6903F00C03042B5DD00A
:10118000FFF72AFE801B41F288339842F2D90320F0
:10119000BAE0294BDB6813F4804FD3D1FFF71CFE74
:1011A000801B0228F5D90320AEE0224AD2F8943001
:1011B00023F00403C2F89430C5E71E4B1B6813F4F8
:1011C000003FC6D101209FE01A4B1B6813F4806FCB
:1011D000BFD1012098E0174BDB6903F00C030C2B07
:1011E0002CD0FFF7F9FD831B41F288329342F2D9EC
:1011F000032089E00F4BDB6903F00C03082B1DD0A3
:10120000FFF7EAFD801B41F288339842F2D90320B0
:101210007AE0084BDB6913F00C0F0FD0FFF7DCFD11
:10122000801B41F288339842F3D903206CE000BF61
:1012300000200240000C024600080246236813F01A
:10124000020F0CD0A268354B1B6A03F00F039A42C1
:1012500005D232490B6A23F00F031A430A62304B5E
:101260001B6803F00F03AB420AD92D4A136823F021
:101270000F032B431360136803F00F03AB424BD1F2
:10128000236813F0040F0CD0E268244B1B6A03F0B0
:1012900070039A4205D221490B6A23F070031A4366
:1012A0000A62236813F0080F0ED022691B4B1B6AD9
:1012B0001B0903F070039A4206D218490B6A23F403
:1012C000E06343EA02130B62236813F0100F0CD0A3
:1012D0006269124B5B6A03F070039A4205D20F49B0
:1012E0004B6A23F070031A434A62FFF7DDFD0B4B94
:1012F0001B6A03F00F030B4AD35CD8400A4B1860FB
:101300000A4B1868FFF7E6FC03B0F0BD01207047F8
:101310000120F9E70120F7E70120F5E7000C02467C
:1013200000200240E82801080800002004000020F6
:1013300008B5FFF7B9FD054B1B6A03F00F03044A1C
:10134000D35CD840034B186008BD00BF000C0246B8
:10135000E828010808000020002800F02A85F0B5E0
:1013600085B004469C4BDD6905F00C059E6A06F0CD
:101370000306036813F0100F00F09480EDB10C2DFC
:1013800019D0E369002B00F01181934A136843F0F0
:1013900001031360FFF720FD07468F4B1B6813F016
:1013A000040F40F0CD80FFF717FDC01B0228F4D9D1
:1013B000032000F001BD012EE3D1E369002B00F012
:1013C000FA84606A844B9B6813F4000F1CD0824B34
:1013D0009B6803F07043984244D9E5B17E4A936814
:1013E00043F400039360936823F07043616A0B43F6
:1013F0009360636AB3F1404F14D3D36823F01F03A3
:10140000216A0B43D36044E0734BD3F8F4301B04E0
:1014100003F07043DFE7FFF7E5FC0028DED0012092
:1014200000F0CABC002B0BDBB3F1804F11D36A4A2A
:10143000D36823F4F843216A43EA8123D36028E088
:10144000654AD36823F47873216A43EA4113D36071
:101450001FE0614AD36823F47823216A43EAC13349
:10146000D36016E05C4A936843F40003936093688A
:1014700023F07043616A0B439360636AB3F1404F9A
:1014800036D3D36823F01F03216A0B43D360002DAA
:101490004ED0FFF74DFF514B1868FFF71BFC00289B
:1014A00040F08A84236813F0010F00F0A080082D1B
:1014B00000F099800C2D00F093806368B3F5803FB5
:1014C00000F0B680B3F5A02F00F0C880B3F5A81FD8
:1014D00000F0D280404B1A6822F480321A601A68F9
:1014E00022F480221A601A6822F480121A60A4E0A2
:1014F000002B0BDBB3F1804F11D3374AD36823F4B1
:10150000F843216A43EA8123D360C0E7324AD368B3
:1015100023F47873216A43EA4113D360B7E72E4A74
:10152000D36823F47823216A43EAC133D360AEE75A
:10153000606AFFF757FC0028ABD0012000F03CBCEC
:10154000254A936843F400039360936823F0704343
:10155000616A0B439360636AB3F1404F06D3D3686B
:1015600023F01F03216A0B43D3609BE7002B0BDBA7
:10157000B3F1804F11D3184AD36823F4F843216A9A
:1015800043EA8123D3608DE7134AD36823F4787349
:10159000216A43EA4113D36084E70F4AD36823F4F6
:1015A0007823216A43EAC133D3607BE70A4A136890
:1015B00023F001031360FFF70FFC0746064B1B687F
:1015C00013F0040F3FF46EAFFFF706FCC01B0228B8
:1015D000F4D90320F0E300BF000C02460400002011
:1015E000032E7FF46AAF6368002B00F0E783236863
:1015F00013F0020F6BD0042D5DD00C2D59D0E36891
:10160000002B00F0BF80AA4A136843F48073136074
:10161000FFF7E2FB0546A64B1B6813F4806F40F012
:10162000A880FFF7D9FB401B0228F4D90320C3E3AD
:101630009F4A136843F480331360636853B3FFF722
:10164000CBFB07469A4B1B6813F4003FCFD1FFF743
:10165000C3FBC01B6428F5D90320ADE3944B1A6883
:1016600042F480221A601A6822F480121A601A6802
:1016700042F480321A60E0E78D4B1A6842F480220F
:101680001A601A6842F480121A601A6842F48032B2
:101690001A60D2E7FFF7A0FB0746854B1B6813F4DF
:1016A000003FA4D0FFF798FBC01B6428F5D90320A6
:1016B00082E3022EA3D1E368002B00F081837C4AF1
:1016C000136923F4F813216943EA01431361236882
:1016D00013F0080F00F0AF80754BD3F8943013F07F
:1016E000040F63D1724BD3F8942042F00402C3F884
:1016F0009420D3F8943003F004030193019B012557
:101700006C4B9B6A13F0010F52D06369002B7AD0A7
:10171000674BD3F8F030A16903F08052914211D0A9
:1017200003F04062B2F1006F00F04C8313F0806F61
:1017300052D15F4AD2F8F03023F08053A1690B43B5
:10174000C2F8F0305A4AD2F8F03043F08063C2F861
:10175000F030FFF741FB0646554BD3F8F03013F05D
:10176000006F67D1FFF738FB801B0528F4D90320F1
:1017700022E34F4A136923F4F813216943EA014332
:101780001361A4E74A4A136823F480731360FFF7D8
:1017900023FB0546464B1B6813F4806F97D0FFF779
:1017A0001BFB401B0228F5D9032005E30025A7E712
:1017B000404A936A43F001039362FFF70DFB06462C
:1017C0003C4B9B6A13F0010F9FD1FFF705FB801B79
:1017D0000228F5D90320EFE2354AD2F8F03023F0A1
:1017E000A053C2F8F030FFF7F7FA0646304BD3F8B3
:1017F000F03013F0006F9CD0FFF7EEFA801B052845
:10180000F4D90320D8E22A4AD2F8F03023F0A053CA
:10181000C2F8F030FFF7E0FA0646254BD3F8F03077
:1018200013F0006F06D0FFF7D7FA801B0528F4D914
:101830000320C1E295BB236813F0040F00F0D980A8
:101840001B4BD3F8943013F0040F2FD1184BD3F85F
:10185000942042F00402C3F89420D3F8943003F0AB
:1018600004030293029B0125124B9B6A13F0010FA4
:1018700022D0A36813F0010F3AD013F0040F2FD039
:101880000B4BD3F8F02042F00402C3F8F020D3F859
:10189000F02042F00102C3F8F02036E0044AD2F80A
:1018A000943023F00403C2F89430C4E70025DBE74A
:1018B000000C024600080246A84A936A43F001035E
:1018C0009362FFF789FA0646A44B9B6A13F0010F57
:1018D000CFD1FFF781FA801B0228F5D903206BE2F4
:1018E0009F4AD2F8F03043F00103C2F8F0300CE028
:1018F0009B4BD3F8F02022F00102C3F8F020D3F87C
:10190000F02022F00402C3F8F020A368002B41D09D
:10191000FFF762FA0646924BD3F8F03013F0020F4D
:1019200008D1FFF759FA801B41F288339842F2D967
:10193000032041E2A36813F0800F15D0884AD2F843
:10194000F03043F08003C2F8F030854BD3F8F0302C
:1019500013F4006F4CD1FFF73FFA801B41F288333C
:101960009842F2D9032027E27D4AD2F8F03023F0E2
:101970008003C2F8F0307A4BD3F8F03013F4006FE4
:1019800036D0FFF729FA801B41F288339842F2D90A
:10199000032011E2FFF720FA0646714BD3F8F0302E
:1019A00013F0020F08D0FFF717FA801B41F28833BB
:1019B0009842F2D90320FFE1694BD3F8F03013F0DD
:1019C000800F15D0664AD2F8F03023F08003C2F8B9
:1019D000F030634BD3F8F03013F4006F08D0FFF70A
:1019E000FBF9801B41F288339842F2D90320E3E1EE
:1019F000CDB9236813F0200F31D0E36ADBB1584A28
:101A0000136843F480531360FFF7E6F90546544B1F
:101A10001B6813F4005F22D1FFF7DEF9401B022898
:101A2000F5D90320C8E14E4AD2F8943023F00403DC
:101A3000C2F89430DDE74A4A136823F480531360F8
:101A4000FFF7CAF90546464B1B6813F4005F06D042
:101A5000FFF7C2F9401B0228F5D90320ACE1236847
:101A600013F0800F29D0236B9BB13D4A136843F4D8
:101A700080431360FFF7B0F90546394B1B6813F438
:101A8000004F1AD1FFF7A8F9401B0228F5D903200F
:101A900092E1334A136823F480431360FFF79CF903
:101AA00005462F4B1B6813F4004F06D0FFF794F93F
:101AB000401B0228F5D903207EE1236813F0400F74
:101AC00064D0636B002B4DD0254A936843F4000328
:101AD0009360936823F07063A16A0B439360636A19
:101AE000B3F1404F19D3D36823F01F03216A0B438E
:101AF000D3601B4A136843F010031360FFF76CF9BF
:101B00000546174B1B6813F0200F3FD1FFF764F910
:101B1000401B0228F5D903204EE1002B0BDBB3F16B
:101B2000804F11D30E4AD36823F4F843216A43EA65
:101B30008123D360DDE70A4AD36823F47873216AEE
:101B400043EA4113D360D4E7054AD36823F47823EA
:101B5000216A43EAC133D360CBE700BF00080246E5
:101B6000000C0246A14A136823F010031360FFF72C
:101B700033F905469D4B1B6813F0200F06D0FFF785
:101B80002BF9401B0228F5D9032015E1A36B002B8C
:101B900000F01A81954AD26902F00C020C2A00F07A
:101BA000BC80022B14D0914A136823F08073136019
:101BB000FFF712F904468D4B1B6813F0007F00F00D
:101BC000A380FFF709F9001B0228F4D90320F3E0F2
:101BD000864A136823F080731360FFF7FDF805460B
:101BE000824B1B6813F0007F06D0FFF7F5F8401B0F
:101BF0000228F5D90320DFE07C4BD3F8943013F0B2
:101C0000040F68D1794BD3F8942042F00402C3F852
:101C10009420D3F8943003F004030393039B01252D
:101C2000734BDB6813F4802F57D10026704AD368BA
:101C300023F48023D3606D4B9A6A22F47F4222F012
:101C40000302E16B206C013841EA0021606C014322
:101C50000A439A625A6B67481040A26C013AC2F379
:101C60000802E16C0139490289B20A43216D013948
:101C7000090401F4FE010A43616D0139090601F00E
:101C8000FE410A43104358639A6A22F010029A6296
:101C9000E26DD2009A639A6A42F010029A629A6ADE
:101CA00022F00C02A16D0A439A62C6B9EDB94F4AFF
:101CB000136843F080731360FFF78EF804464B4BB4
:101CC0001B6813F0007F18D1FFF786F8001B02286D
:101CD000F5D9032070E00025A2E70126A6E7444AD3
:101CE000D36843F48023D360E0E7404AD2F89430CD
:101CF00023F00403C2F89430D9E73C4A936A43F4D2
:101D000080239362002057E0384A936A23F4E0234B
:101D100023F00303936200204EE0344A916A506B33
:101D2000012B53D001F00303E26B934250D1C1F376
:101D30000322236C013B9A424CD101F47041636C45
:101D4000994249D1C0F30802A36C013B9A4245D1A4
:101D5000C0F34622E36C013B9A4241D1C0F30642F4
:101D6000236D013B9A423DD1C0F30660636D013B98
:101D7000984239D11D4B9B6BC3F3CC03E26D934268
:101D800001D1002018E0194A936A23F010039362EE
:101D9000FFF722F80546FFF71FF8A842FBD0E26DD7
:101DA000D200124B9A639A6A42F010029A620020A3
:101DB00002E001207047012005B0F0BD0120FBE7E3
:101DC0000120F9E70120F7E70020F5E70120F3E71C
:101DD0000120F1E70120EFE70120EDE70120EBE72B
:101DE0000120E9E70120E7E70120E5E7000C0246D2
:101DF000000802460000808008B5FFF799FA044BFE
:101E00001B6AC3F30213034AD35CD84008BD00BF6A
:101E1000000C0246E028010808B5FFF789FA044BD8
:101E20001B6AC3F30223034AD35CD84008BD00BF3A
:101E3000000C0246E028010808B5FFF779FA044BC8
:101E40005B6AC3F30213034AD35CD84008BD00BFEA
:101E5000000C0246E02801081F2303600D4BDA69DD
:101E600002F0030242601A6A02F00F0282601A6AEC
:101E700002F07002C2601A6A120902F07002026176
:101E80005B6A03F070034361034B1B6803F00F03AD
:101E90000B607047000C02460020024038B5054632
:101EA000354A136823F080531360FEF795FF04460C
:101EB000314B1B6813F0005F06D0FEF78DFF001B4F
:101EC0000228F5D9032038BD2B4B1A6B22F470621F
:101ED00022F0030229686868013841EA00210A43B8
:101EE0001A635A6C25481040AA68013AC2F30802E6
:101EF000E9680139490289B20A43296901390904AB
:101F000001F4FE010A4369690139090601F0FE4145
:101F10000A43104358641A6B22F00C02A9690A4361
:101F20001A631A6B296A0A431A631A6B22F01002A9
:101F30001A639A6C22F47F4222F0F802E96942EABD
:101F4000C1029A641A6B42F010021A631A6842F0D6
:101F500080521A60FEF740FF0446074B1B6813F0DF
:101F6000005F06D1FEF738FF001B0228F5D90320D9
:101F7000A9E70020A7E700BF000C02460000808010
:101F800038B50546354A136823F080631360FEF7C1
:101F900023FF0446314B1B6813F0006F06D0FEF799
:101FA0001BFF001B0228F5D9032038BD2B4BDA6A32
:101FB00022F4706222F0030229686868013841EA5D
:101FC00000210A43DA62DA6B25481040AA68013A18
:101FD000C2F30802E9680139490289B20A43296952
:101FE0000139090401F4FE010A436969013909064E
:101FF00001F0FE410A431043D863DA6A22F00C0272
:10200000A9690A43DA62DA6A296A0A43DA62DA6A91
:1020100022F01002DA621A6C22F47F4222F0F802F7
:10202000E96942EAC1021A64DA6A42F01002DA622D
:102030001A6842F080621A60FEF7CEFE0446074B33
:102040001B6813F0006F06D1FEF7C6FE001B0228C6
:10205000F5D90320A9E70020A7E700BF000C02463E
:10206000000080802DE9F04182B00446036813F03F
:10207000010F08D0AC4AD2F8E03023F00303016D21
:102080000B43C2F8E030236813F0020F08D0A64AD1
:10209000D2F8E03023F00C03616D0B43C2F8E0305E
:1020A000236813F0040F08D09F4AD2F8E03023F0E1
:1020B0003003A16D0B43C2F8E030236813F0080F22
:1020C00008D0994AD2F8E03023F0C003E16D0B4309
:1020D000C2F8E030236813F0100F08D0924AD2F80B
:1020E000E03023F44073216E0B43C2F8E0302368E4
:1020F00013F0200F08D08C4AD2F8E83023F0070301
:10210000616E0B43C2F8E830236813F0400F08D02B
:10211000854AD2F8E03023F44063A16E0B43C2F845
:10212000E030236813F0800F08D07F4AD2F8E03007
:1021300023F44053E16E0B43C2F8E030236813F4FC
:10214000807F08D0784AD2F8E83023F0C003216FAE
:102150000B43C2F8E830236813F4800F08D0724AAA
:10216000D2F8E03023F44043616F0B43C2F8E03013
:10217000236813F4007F08D06B4AD2F8E83023F4C8
:102180004063A16F0B43C2F8E830236813F4806FFB
:1021900008D0654AD2F8E03023F44023E16F0B43C6
:1021A000C2F8E030236813F4006F09D05E4AD2F819
:1021B000E83023F44073D4F880100B43C2F8E830C1
:1021C000236813F4005F36D0D4F89030402B20D031
:1021D0000BD82BB3202B05D104F12C00FFF75EFEAA
:1021E000054622E00126354627E0602B21D0802BD2
:1021F0000CD100254C4AD2F8E43023F0E003D4F8A7
:1022000090100B43C2F8E430002616E00126354654
:1022100013E0454A936A43F4803393620025E9E76B
:1022200004F10800FFF7ACFE0546002DE2D02E4673
:1022300003E00025DEE700263546236813F4804FCF
:1022400025D0D4F89430B3F5007F45D00DD8002BBD
:1022500048D0B3F5807F05D104F12C00FFF71EFEB6
:10226000054608E00126354611E0B3F5407F02D06F
:10227000B3F5806F2DD1002D3AD12B4AD2F8E4303E
:1022800023F4E063D4F894100B43C2F8E4302368DD
:1022900013F4004F10D0D4F8A430B3F5005F30D061
:1022A00028D9B3F5804F31D0B3F5A04F2ED0B3F578
:1022B000405F2BD001263546236813F4803F45D07C
:1022C000D4F88830042B5CD8DFE803F0353055357E
:1022D000350001263546DAE7134A936A43F4803322
:1022E0009362C8E704F10800FFF74AFE0546C2E71B
:1022F0002E46CCE753B1B3F5805F07D001263546B3
:10230000DAE704F10800FFF73BFE054655B9064A37
:10231000D2F8E83023F4E043D4F8A4100B43C2F819
:10232000E830C9E72E46C7E7000C0246794A936AAF
:1023300043F4803393623DBB764AD2F8E43023F015
:102340000703D4F888100B43C2F8E430236813F471
:10235000003F30D0D4F88C30B3F5003F00F08980D6
:1023600017D8E3B1B3F5803F10D16A4A936A43F4BA
:102370008033936213E004F12C00FFF78FFD0546D4
:10238000D9E701263546E1E72E46DFE70126354647
:1023900011E0B3F5403F02D0B3F5802F66D1002D98
:1023A0006DD15C4AD2F8E83023F4E023D4F88C10E5
:1023B0000B43C2F8E830236813F4802F7AD0554BD2
:1023C000D3F8943013F0040F5BD1524BD3F8942020
:1023D00042F00402C3F89420D3F8943003F00403CD
:1023E0000193019B4FF001084B4A936A43F00103AC
:1023F0009362FEF7F1FC0746474B9B6A13F0010F0F
:1024000005D1FEF7E9FCC31B022BF5D90325002DEE
:102410004CD1404BD3F8F03013F4407316D0D4F8BD
:10242000BC209A4212D03B4AD2F8F03023F44073D9
:10243000D2F8F01041F48031C2F8F010D2F8F01068
:1024400021F48031C2F8F010C2F8F03013F0010F1F
:102450001AD1002D50D12F4AD2F8F03023F4407316
:10246000D4F8BC100B43C2F8F03020E0012635460A
:10247000A1E704F12C00FFF711FD05468FE72E467A
:1024800099E74FF00008AFE7FEF7A6FC0746214B9F
:10249000D3F8F03013F0020FDBD1FEF79DFCC01B28
:1024A00041F288339842F2D90325D2E72E46B8F19B
:1024B000000F23D1236813F4801F34D0D4F89C304C
:1024C000B3F1006F00F0BB8028D83BB1B3F1806F4F
:1024D0001CD104F10800FFF753FD0546002D40F024
:1024E000B4800C4AD2F8E03023F04063D4F89C105A
:1024F0000B43C2F8E03016E02E46D8E7054AD2F882
:10250000943023F00403C2F89430D3E70126354613
:1025100009E000BF000C024600080246B3F1406F1C
:10252000DCD001263546236813F4002F0ED0D4F8F2
:102530009830B3F5805F00F08A80B3F5005F00F05B
:102540008680002B00F0838001263546236813F433
:10255000001F0FD0D4F8A030B3F5804F00F0838077
:10256000574AD2F8E43023F48043D4F8A0100B4348
:10257000C2F8E430236813F4000F09D0504AD2F8AF
:10258000E03023F44013D4F8B0100B43C2F8E0302D
:10259000236813F0807F09D0494AD2F8E03023F451
:1025A0004033D4F8B4100B43C2F8E030236813F082
:1025B000007F09D0424AD2F8E83023F01803D4F85B
:1025C000B8100B43C2F8E830236813F0806F15D0C1
:1025D000D4F8AC30B3F5001F4BD0D4F8AC30B3F521
:1025E000401F4CD0002D50D1354AD2F8E43023F4AE
:1025F0004013D4F8AC100B43C2F8E430236813F056
:10260000006F0AD0D4F88430B3F1807F3FD0B3F1AB
:10261000007F4DD0002B3FD00126236813F0805F50
:1026200009D0274AD2F8E83023F40043D4F8A810A0
:102630000B43C2F8E830304602B0BDE8F081204AD2
:10264000936A43F40033936248E72E466BE745B93B
:102650001B49D1F8E42022F440521343C1F8E4307E
:1026600074E72E4672E7164A936A43F48033936206
:1026700076E7134A936A43F400339362ADE704F1BB
:102680000800FFF77DFC0546ACE72E46B6E70C4A8E
:10269000936A43F40033936285B9094AD2F8E03073
:1026A00023F04073D4F884100B43C2F8E030B4E751
:1026B00004F10800FFF764FC0546EDE72E46ACE7A1
:1026C000000C024610B5824C616BC1F30801A36A8D
:1026D00003F0030CA36AC3F303235A1CA36AC3F3D6
:1026E000001EA36BC3F3CC030EFB03F307EE903A7B
:1026F000F8EE677ABCF1020F2ED0BCF1030F00F0A8
:10270000BA80BCF1010F00F08A80714B9B6813F412
:10271000000F00F0CD806E4B9B681B0F6D4C04EBDF
:10272000830393ED006AB8EE466A07EE102AB8EE0E
:10273000477AC6EE076A07EE101AB8EE477A9FEDA1
:10274000666A67EE867A77EE277AB7EE007A77EEDA
:10275000877A66EEA77A1BE007EE102AB8EE477A72
:102760009FED5E6AC6EE076A594B5B6BC3F30803C5
:1027700007EE103AB8EE477A9FED576A67EE867A11
:1027800077EE277AB7EE007A77EE877A66EEA77A49
:102790004F4B9B6A13F4803F00F090804C4B5B6B77
:1027A000C3F3462307EE103AB8EE477AF7EE006A15
:1027B00037EE267AC7EE876AFCEEE66AC0ED006A5D
:1027C000434B9B6A13F4003F7BD0414B5B6BC3F3DD
:1027D000064307EE103AB8EE477AF7EE006A37EE96
:1027E000267AC7EE876AFCEEE66AC0ED016A384BCE
:1027F0009B6A13F4802F67D0354B5B6BC3F3066382
:1028000007EE103AB8EE477AF7EE006A37EE267A0E
:10281000C7EE876AFCEEE66AC0ED026A10BD2C4B7B
:102820009B6813F4000F20D0294B9B681B0F294C89
:1028300004EB830393ED006AB8EE466A07EE102AB4
:10284000B8EE477AC6EE076A07EE101AB8EE477A76
:102850009FED216A67EE867A77EE277AB7EE007AE7
:1028600077EE877A66EEA77A92E7194BD3F8F430C1
:10287000C3F30333DBE707EE102AB8EE477A9FED88
:10288000176AC6EE076A124B5B6BC3F3080307EEC9
:10289000103AB8EE477A9FED106A67EE867A77EEC7
:1028A000277AB7EE007A77EE877A66EEA77A6FE737
:1028B000074BD3F8F430C3F303332FE7002303604F
:1028C0007EE70023436092E700238360A6E700BF12
:1028D000000C0246A0280108000000390024744BB7
:1028E00010B5824CE16BC1F30801E36A03F0030CFD
:1028F000E36AC3F303235A1CE36AC3F3001E236C89
:10290000C3F3CC030EFB03F307EE903AF8EE677ABD
:10291000BCF1020F2ED0BCF1030F00F0BA80BCF165
:10292000010F00F08A80714B9B6813F4000F00F0D8
:10293000CD806E4B9B681B0F6D4C04EB830393EDB6
:10294000006AB8EE466A07EE102AB8EE477AC6EE7D
:10295000076A07EE101AB8EE477A9FED666A67EECF
:10296000867A77EE277AB7EE007A77EE877A66EE88
:10297000A77A1BE007EE102AB8EE477A9FED5E6A51
:10298000C6EE076A594BDB6BC3F3080307EE103A38
:10299000B8EE477A9FED576A67EE867A77EE277A28
:1029A000B7EE007A77EE877A66EEA77A4F4BDB6A4E
:1029B00013F4803F00F090804C4BDB6BC3F3462355
:1029C00007EE103AB8EE477AF7EE006A37EE267A4D
:1029D000C7EE876AFCEEE66AC0ED006A434BDB6A2D
:1029E00013F4003F7BD0414BDB6BC3F3064307EE90
:1029F000103AB8EE477AF7EE006A37EE267AC7EE5D
:102A0000876AFCEEE66AC0ED016A384BDB6A13F4B4
:102A1000802F67D0354BDB6BC3F3066307EE103AAC
:102A2000B8EE477AF7EE006A37EE267AC7EE876A85
:102A3000FCEEE66AC0ED026A10BD2C4B9B6813F4F5
:102A4000000F20D0294B9B681B0F294C04EB8303FC
:102A500093ED006AB8EE466A07EE102AB8EE477AA0
:102A6000C6EE076A07EE101AB8EE477A9FED216AA4
:102A700067EE867A77EE277AB7EE007A77EE877A76
:102A800066EEA77A92E7194BD3F8F430C3F3033319
:102A9000DBE707EE102AB8EE477A9FED176AC6EE1D
:102AA000076A124BDB6BC3F3080307EE103AB8EE6C
:102AB000477A9FED106A67EE867A77EE277AB7EE4F
:102AC000007A77EE877A66EEA77A6FE7074BD3F83E
:102AD000F430C3F303332FE7002303607EE70023C2
:102AE000436092E700238360A6E700BF000C024624
:102AF000A0280108000000390024744B10B5824C56
:102B0000616CC1F30801236B03F0030C236BC3F367
:102B100003235A1C236BC3F3001EA36CC3F3CC0323
:102B20000EFB03F307EE903AF8EE677ABCF1020F62
:102B30002ED0BCF1030F00F0BA80BCF1010F00F001
:102B40008A80714B9B6813F4000F00F0CD806E4BB0
:102B50009B681B0F6D4C04EB830393ED006AB8EE8A
:102B6000466A07EE102AB8EE477AC6EE076A07EE05
:102B7000101AB8EE477A9FED666A67EE867A77EEAE
:102B8000277AB7EE007A77EE877A66EEA77A1BE0AF
:102B900007EE102AB8EE477A9FED5E6AC6EE076A26
:102BA000594B5B6CC3F3080307EE103AB8EE477A53
:102BB0009FED576A67EE867A77EE277AB7EE007A4E
:102BC00077EE877A66EEA77A4F4B1B6B13F4803F44
:102BD00000F090804C4B5B6CC3F3462307EE103A39
:102BE000B8EE477AF7EE006A37EE267AC7EE876AC4
:102BF000FCEEE66AC0ED006A434B1B6B13F4003F2A
:102C00007BD0414B5B6CC3F3064307EE103AB8EE42
:102C1000477AF7EE006A37EE267AC7EE876AFCEE4F
:102C2000E66AC0ED016A384B1B6B13F4802F67D046
:102C3000354B5B6CC3F3066307EE103AB8EE477A88
:102C4000F7EE006A37EE267AC7EE876AFCEEE66A90
:102C5000C0ED026A10BD2C4B9B6813F4000F20D00E
:102C6000294B9B681B0F294C04EB830393ED006AEF
:102C7000B8EE466A07EE102AB8EE477AC6EE076A43
:102C800007EE101AB8EE477A9FED216A67EE867A52
:102C900077EE277AB7EE007A77EE877A66EEA77A34
:102CA00092E7194BD3F8F430C3F30333DBE707EEB5
:102CB000102AB8EE477A9FED176AC6EE076A124BE4
:102CC0005B6CC3F3080307EE103AB8EE477A9FED4A
:102CD000106A67EE867A77EE277AB7EE007A77EE9B
:102CE000877A66EEA77A6FE7074BD3F8F430C3F321
:102CF00003332FE7002303607EE70023436092E75E
:102D000000238360A6E700BF000C0246A02801084C
:102D1000000000390024744B00B58BB0A0F50043CF
:102D20000B4300F0B28348F20103984271F10003B3
:102D300080F0FC80A0F180030B4300F077848128B1
:102D400071F100037CD2212871F1000354D250EAC2
:102D5000010300F0C886013841F1FF31202871F1EC
:102D6000000103D300200BB05DF804FB1F28F9D845
:102D700001A353F820F000BFAD320008F132000883
:102D8000652D000845330008652D0008652D0008F5
:102D9000652D000889330008652D0008652D0008A1
:102DA000652D0008652D0008652D0008652D0008BB
:102DB000652D0008CD330008652D0008652D00083D
:102DC000652D0008652D0008652D0008652D00089B
:102DD000652D0008652D0008652D0008652D00088B
:102DE000652D0008652D0008652D0008652D00087B
:102DF000652D000817340008403808431ED1A44B45
:102E0000D3F8E03013F4406300F0F183B3F5806F42
:102E100000F0F6839E4A126812F4806F03D0B3F577
:102E2000006F00F0C2869A4A106810F020009AD015
:102E3000B3F5406F00F0E883002094E7002092E7AC
:102E4000A0F500630B4300F08F8440F60103984225
:102E500071F100031FD3A0F500530B4300F0728102
:102E6000A0F5804008435FD1894BD3F8E43003F4E8
:102E7000E063B3F5007F00F0A38100F29081002BA6
:102E800000F0A381B3F5807F40F0878101A8FFF7B0
:102E900035FE019867E7A0F500730B4300F0AD84A1
:102EA000A0F580630B4326D1794BD3F8E03013F4BF
:102EB000402300F0EB84764AD2F8F02012F0006F45
:102EC00003D0B3F5802F00F0E584714A126812F444
:102ED000806F03D0B3F5002F00F090866C4AD2F8D3
:102EE000F02012F0020F00F08C86B3F5402F00F0B6
:102EF0008B86002037E7A0F58070084312D1644B21
:102F0000D3F8E83003F0C003802B00F0E68300F232
:102F1000C883002B00F0DD83402B40F0BF83FDF71A
:102F2000C3FF20E700201EE700201CE7A0F5800378
:102F30000B4300F0E183574B984271F1000333D308
:102F400000F17C430B4300F06F85534B984271F1C5
:102F50000003C0F0A58000F178430B4300F0A48487
:102F600000F17040084340F0E280494AD2F8E8306E
:102F700003F40043D2F8F02012F0020F02D0002B2D
:102F800000F05886424AD2F8F00010F000603FF49A
:102F9000EAAE002B00F05286D2F8F03013F0805FDA
:102FA00000F04F86FA20DEE6A0F500230B4300F088
:102FB00078853A4B984271F1000325D3A0F5801330
:102FC0000B4300F00781A0F5001008435DD1304BA2
:102FD000D3F8E40010F4804040F06381D3F8E0308F
:102FE00003F04063B3F1006F00F0488100F23081DC
:102FF000002B00F04881B3F1806F7FF4B4AE04A8D9
:10300000FFF76EFC0598AEE6A0F500330B4300F029
:10301000AB82A0F580230B4322D11D4AD2F8F030B9
:1030200003F44073D2F8F02012F0020F03D0B3F58E
:10303000807F00F05B85164AD2F8F02012F0006F16
:1030400002D0B3F5007F74D0114A126812F4003F29
:1030500000F05485B3F5407F00F05385002082E6F0
:10306000A0F5803008430ED1094BD3F8E43003F0CB
:103070000703042B00F29285DFE813F05B02510294
:1030800056024E025E0200206DE600206BE600BF95
:10309000000C02460100400001000004010008008D
:1030A00000F17F430B4300F0558400F17E430B4356
:1030B00022D1A04BD3F8E83003F01803182B00F20C
:1030C000B385DFE813F08704B105B105B105B1059B
:1030D000B105B105B1058B04B105B105B105B10567
:1030E000B105B105B1058F04B105B105B105B10553
:1030F000B105B105B1059804A0F50000084314D14D
:103100008C4BD3F8E03003F44013B3F5001F00F00C
:10311000128400F2F383002B00F00984B3F5801FC2
:1031200040F0E383FDF7C0FE1DE600201BE6002013
:1031300019E6804BD3F8F03013F0805F00F0DA84AA
:10314000FA2010E67B4BD3F8E43003F0E003402B89
:1031500019D009D8E3B1202B04D101A8FFF7CEFC88
:10316000019800E60020FEE5602B00F0CD84802B66
:1031700007D1704B186810F480603FF4F4AD6E48CE
:10318000F1E50020EFE507A8FFF79CFA0798EAE5CC
:1031900004A8FFF7A5FB0498E5E50020E3E5B3F5F7
:1031A000407F00F0B584B3F5806F07D1614B18689C
:1031B00010F480603FF4D7AD5F48D4E50020D2E53D
:1031C00007A8FFF77FFA0798CDE504A8FFF788FB6B
:1031D0000498C8E5574BD3F8E03003F04063B3F1EF
:1031E000006F22D00AD82BB3B3F1806F04D104A8AA
:1031F000FFF776FB0598B6E50020B4E5B3F1406F24
:1032000011D14C4B186810F020003FF4ACAD9B6816
:1032100013F4000F16D0474B9B68C3F30363474A70
:1032200052F823009FE500209DE507A8FFF74AFA22
:10323000089898E53F4B186810F400503FF493ADA0
:103240003F4890E53B4BD3F8F430C3F30323E6E764
:10325000B3F1406F7FF487AD364B186810F0200053
:103260003FF481AD9B6813F4000F14D0314B9B6881
:10327000C3F30363314A52F8230074E507A8FFF74C
:1032800021FA08986FE52B4B186810F400503FF4B2
:103290006AAD2B4867E5274BD3F8F430C3F303231B
:1032A000E8E707A8FFF70EFA07985CE5214BD3F88B
:1032B000E03013F0030315D0012B16D01D4A12681D
:1032C00012F4806F02D0022B00F02684194AD2F843
:1032D000F02012F0020F00F02284032B00F0228471
:1032E000002040E5FEF798FD3DE5FDF7DDFD3AE500
:1032F000104BD3F8E03013F00C0315D0042B16D08C
:103300000C4A126812F4806F02D0082B00F00E8471
:10331000084AD2F8F02012F0020F00F00A840C2BB9
:1033200000F00A8400201EE5FEF766FD1BE5FDF7B0
:10333000BBFD18E5000C02460024F400A02801089B
:10334000006CDC02AC4BD3F8E03013F0300315D046
:10335000102B16D0A84A126812F4806F02D0202BCE
:1033600000F0EE83A44AD2F8F02012F0020F00F031
:10337000EA83302B00F0EA830020F4E4FEF73CFD02
:10338000F1E4FDF791FDEEE49B4BD3F8E03013F050
:10339000C00315D0402B16D0974A126812F4806FE4
:1033A00002D0802B00F0D683934AD2F8F02012F09E
:1033B000020F00F0D283C02B00F0D2830020D2E4B1
:1033C000FEF71AFDCFE4FDF76FFDCCE48A4BD3F88E
:1033D000E03013F4407318D0B3F5807F18D0864ADC
:1033E000126812F4806F03D0B3F5007F00F0BC8345
:1033F000814AD2F8F02012F0020F00F0B883B3F542
:10340000407F00F0B7830020ADE4FEF7F5FCAAE4AE
:10341000FDF74AFDA7E4784BD3F8E83013F0070333
:103420001CD0012B1DD0744A126812F4806F02D098
:10343000022B00F0A383704AD2F8F02012F0020FA2
:1034400002D0032B00F09D836B4A106810F020001F
:103450003FF489AC042B07D0002084E4FEF7ECFC99
:1034600081E4FDF721FD7EE4936813F4000F06D09C
:103470009368C3F30363614A52F8230073E45E4B1D
:10348000D3F8F430C3F30323F5E75B4BD3F8E8300C
:1034900003F4E043B3F5805F1BD0B3F5005F1BD0AE
:1034A000FBB1B3F5A04F1FD0534A126812F4003F8E
:1034B00003D0B3F5405F00F068834F4A126812F4FE
:1034C000806F00F06583B3F5804F00F064830020C7
:1034D00049E4FDF7E9FC46E404A8FFF701FA069881
:1034E00041E4FDF725FF3EE4434B186810F020004F
:1034F0003FF439AC9B6813F4000F07D03E4B9B6838
:10350000C3F303633D4A52F823002CE43A4BD3F84B
:10351000F430C3F30323F5E74BF6803023E407A828
:10352000FFF7D0F807981EE401A8FFF7E7FA029822
:1035300019E4FDF7FDFE16E42F4B186810F020008B
:103540003FF411AC9B6813F4000F07D02A4B9B6823
:10355000C3F30363294A52F8230004E4264BD3F84B
:10356000F430C3F30323F5E7234BD3F8E83003F437
:10357000E023B3F5003F2AD00CD873B3B3F5803FF6
:1035800005D107A8FFF79EF80798FFF7ECBB0020CE
:10359000FFF7E9BBB3F5403F00F00383B3F5802F9D
:1035A00012D1154B186810F020003FF4DCAB9B687B
:1035B00013F4000F15D0104B9B68C3F303630F4A3D
:1035C00052F82300FFF7CFBB0020FFF7CCBB01A8C8
:1035D000FFF794FA0298FFF7C6BBFDF7A9FEFFF7C5
:1035E000C2BB054BD3F8F430C3F30323E7E7FEF780
:1035F00003FCFFF7B8BB00BF000C0246A02801087F
:10360000FDF752FCFFF7AFBB936813F4000F07D030
:103610009368C3F30363B64A52F82300FFF7A3BBD2
:10362000B44BD3F8F430C3F30323F4E7B14BD3F82E
:10363000E03013F4405317D0B3F5805F18D0AD4A93
:10364000126812F4806F03D0B3F5005F00F0B0820F
:10365000A84A106810F020003FF485ABB3F5405F36
:103660000AD00020FFF77FBBFEF7C6FBFFF77BBB4E
:10367000FDF71AFCFFF777BB936813F4000F07D030
:103680009368C3F303639A4A52F82300FFF76BBBB6
:10369000984BD3F8F430C3F30323F4E70020FFF78B
:1036A00062BBC02B12D1934B186810F020003FF47E
:1036B0005AAB9B6813F4000F18D08E4B9B68C3F372
:1036C00003638B4A52F82300FFF74DBB0020FFF73E
:1036D0004ABBFEF7B1FBFFF746BB864B186810F4F8
:1036E00080603FF440AB8448FFF73DBB814BD3F88B
:1036F000F430C3F30323E4E77E4BD3F8E03013F454
:10370000404317D0B3F5804F18D07A4A126812F4AC
:10371000806F03D0B3F5004F00F04D82754A1068FA
:1037200010F020003FF41FABB3F5404F0AD000204B
:10373000FFF719BBFEF760FBFFF715BBFDF7B4FB06
:10374000FFF711BB936813F4000F07D09368C3F31E
:103750000363674A52F82300FFF705BB654BD3F8B4
:10376000F430C3F30323F4E7624BD3F8E83013F4E7
:10377000407318D15F4B186810F020003FF4F3AA93
:103780009B6813F4000F08D05A4B9B68C3F3036384
:10379000574A52F82300FFF7E6BA564BD3F8F430F5
:1037A000C3F30323F4E7534AD2F8F02012F0006F7A
:1037B00002D0B3F5807F16D04E4A126812F4806FA3
:1037C00003D0B3F5007F00F0FD814A4AD2F8F02023
:1037D00012F0020F00F0F981B3F5407F00F0F8819C
:1037E0000020FFF7C0BA434BD3F8F03013F0805FEE
:1037F00000F0E481FA20FFF7B6BA3E4BD3F8E83088
:1038000013F4406318D13B4B186810F020003FF4CC
:10381000AAAA9B6813F4000F08D0364B9B68C3F329
:103820000363334A52F82300FFF79DBA314BD3F8B4
:10383000F430C3F30323F4E72E4AD2F8F02012F059
:10384000006F02D0B3F5806F16D02A4A126812F4C6
:10385000806F03D0B3F5006F00F0C281254AD2F823
:10386000F02012F0020F00F0BE81B3F5406F00F0BF
:10387000BD810020FFF777BA1E4BD3F8F03013F06C
:10388000805F00F0A981FA20FFF76DBAFEF7B4FA65
:10389000FFF769BA174BD3F8F03013F0805F00F0F0
:1038A000A981FA20FFF75FBA124AD2F8E03003F09C
:1038B0004073126812F4003F02D0002B00F0A88180
:1038C000B3F1807F05D0B3F1007F08D00020FFF76F
:1038D0004ABA07A8FEF7F6FE0898FFF744BA04A80C
:1038E000FEF7FEFF0498FFF73EBA0020FFF73BBA51
:1038F000A0280108000C02460024F400B3F5401F84
:1039000012D1C54B186810F020003FF42CAA9B6818
:1039100013F4000F18D0C04B9B68C3F30363BF4A76
:1039200052F82300FFF71FBA0020FFF71CBAFEF77A
:1039300073FAFFF718BAB84B186810F480603FF4B8
:1039400012AAB748FFF70FBAB34BD3F8F430C3F35A
:103950000323E4E7B04BD3F8E03003F44033B3F58E
:10396000003F28D00AD813B3B3F5803F03D1FDF749
:103970009BFAFFF7F8B90020FFF7F5B9B3F5403F20
:1039800012D1A54B186810F020003FF4ECA99B68F9
:1039900013F4000F18D0A04B9B68C3F303639F4A36
:1039A00052F82300FFF7DFB90020FFF7DCB9FEF77C
:1039B00023FAFFF7D8B9984B186810F480603FF4E9
:1039C000D2A99748FFF7CFB9934BD3F8F430C3F39C
:1039D0000323E4E7FEF730FAFFF7C5B9FDF764FA11
:1039E000FFF7C1B98C4B186810F480603FF4BBA995
:1039F0008B48FFF7B8B9884B186810F020003FF4E7
:103A0000B2A99B6813F4000F08D0834B9B68C3F3E3
:103A10000363824A52F82300FFF7A5B97E4BD3F81F
:103A2000F430C3F30323F4E77B4BD3F8E43003F41F
:103A30004013B3F5001F24D019D843B3B3F5801F4A
:103A400012D1754B186810F020003FF48CA99B68C8
:103A500013F4000F1FD0704B9B68C3F303636F4ACE
:103A600052F82300FFF77FB90020FFF77CB9B3F5C8
:103A7000401F40F0DC8004A8FEF732FF0598FFF7F6
:103A800072B907A8FEF71EFE0898FFF76CB9FDF79C
:103A90000BFAFFF768B9604BD3F8F430C3F3032394
:103AA000DDE75D4AD2F8E43003F44053126812F4C3
:103AB000005F02D0002B00F0C880574A126812F451
:103AC000005F03D0B3F5805F00F0C280524A1268F5
:103AD00012F4806F00F0BF80B3F5005F00F0BE808D
:103AE0000020FFF740B90020FFF73DB94FF4004038
:103AF000FFF739B94FF4FA40FFF735B90020FFF767
:103B000032B94848FFF72FB94BF68030FFF72BB991
:103B10004BF68030FFF727B94148FFF724B9002062
:103B2000FFF721B94FF40040FFF71DB93C48FFF7FC
:103B30001AB90020FFF717B94FF40040FFF713B987
:103B40003748FFF710B90020FFF70DB94FF40040D8
:103B5000FFF709B93248FFF706B90020FFF703B9AC
:103B60004FF40040FFF7FFB82D48FFF7FCB80020E6
:103B7000FFF7F9B84FF40040FFF7F5B82848FFF712
:103B8000F2B84FF40040FFF7EEB82548FFF7EBB866
:103B90000020FFF7E8B82248FFF7E5B80020FFF75C
:103BA000E2B84BF68030FFF7DEB81D48FFF7DBB810
:103BB0001B48FFF7D8B81A48FFF7D5B84FF4FA40BA
:103BC000FFF7D1B81648FFF7CEB80020FFF7CBB803
:103BD0004FF40040FFF7C7B84FF4FA40FFF7C3B8FF
:103BE0000F48FFF7C0B80020FFF7BDB84FF4004002
:103BF000FFF7B9B84FF4FA40FFF7B5B80848FFF738
:103C0000B2B80020FFF7AFB84FF40040FFF7ABB8F1
:103C10000348FFF7A8B800BF000C0246A02801081F
:103C20000024F40020A107000020FFF79CB800202A
:103C3000FFF799B84FF40040FFF795B81846FFF723
:103C400092B84FF4FA40FFF78EB80648FFF78BB8EA
:103C50000548FFF788B80020FFF785B80348FFF74D
:103C600082B800BF006CDC0200366E010024F40054
:103C7000002807DB00F01F02400901239340024A9D
:103C800042F82030704700BF00E100E0002808DB68
:103C90000901C9B200F1604000F5614080F80013ED
:103CA000704700F00F000901C9B2014B1954704769
:103CB00014ED00E000B500F00700C0F1070CBCF106
:103CC000040F28BF4FF0040C031D062B0FD9C31E91
:103CD0004FF0FF3E0EFA0CF021EA000199400EFA77
:103CE00003FE22EA0E0241EA02005DF804FB002313
:103CF000EEE70000074AD36823F4E0631B041B0CC3
:103D0000000200F4E060034343F0BF6343F4003378
:103D1000D360704700ED00E010B50446054BD8684D
:103D2000C0F30220FFF7C6FF01462046FFF7AEFFB3
:103D300010BD00BF00ED00E008B5FFF799FF08BD1A
:103D4000042838D8DFE800F00A18283703004FF0BD
:103D5000E022136943F00403136170474FF0E0223F
:103D6000136923F004031361134AD2F8E03023F4FB
:103D70004003C2F8E03070474FF0E022136923F0AF
:103D8000040313610C4AD2F8E03023F4400343F4F7
:103D90008003C2F8E03070474FF0E022136923F04F
:103DA00004031361044AD2F8E03023F4400343F4DF
:103DB0000003C2F8E0307047000C0246F0B504463C
:103DC0000023D9E0056825EA0C054C6804F00104DD
:103DD0009C402C4304607C4D55F8334005EBC305F3
:103DE0006D68EF08083754F8276005F0070C4FEAB4
:103DF0008C0C4FF00F0E0EFA0CFE26EA0E0E0B2660
:103E000006FA0CF646EA0E0644F8276027684FEAE1
:103E1000450C032606FA0CF627EA0607022606FAE0
:103E20000CF63E43266021E0DE08083650F82650A6
:103E300003F00707BF004FF00F0C0CFA07FC25EA50
:103E40000C0C0D6905F00F05BD4045EA0C0540F866
:103E5000265026685F000325BD4026EA05064D680A
:103E600005F00305BD40354325601D464E6806F14B
:103E7000FF3CBCF1010F03D9112E01D0122E1CD131
:103E8000A6684FEA450E4FF0030C0CFA0EFC26EA2A
:103E90000C0CCE6806FA0EF646EA0C06A6606668BA
:103EA0004FF0010C0CFA05FC26EA0C0C4E68C6F328
:103EB0000016AE4046EA0C0666604E68032E0CD033
:103EC000E6686D004FF0030C0CFA05FC26EA0C0CBA
:103ED0008E68AE4046EA0C06E6604D6815F0805FDD
:103EE00049D09E08394F183657F8265003F0030C76
:103EF0004FEACC0C4FF00F0E0EFA0CFE25EA0E0E18
:103F0000334D05EA902505FA0CF545EA0E0547F80C
:103F100026503E686FEA020C26EA02074D6815F447
:103F2000801F01D042EA0607284E376076680CEA07
:103F300006074D6815F4001F01D042EA0607234E1C
:103F40007760D6F884600CEA06074D6815F4003FE8
:103F500001D042EA06071D4EC6F88470D6F880608C
:103F60000CEA06054F6817F4803F01D042EA0605C7
:103F7000164AC2F8805001330A6832FA03F521D09C
:103F80004FF0010C0CFA03FC1CEA0202F3D0114DB5
:103F9000A8423FF417AF4D68022D3FF445AF122DF4
:103FA0003FF442AF26684FEA430C032707FA0CF7A9
:103FB00026EA070605F0030505FA0CF535432560EA
:103FC0001D4653E7F0BD00BFF82701080020024658
:103FD0007F7F2F00000002460AB181617047816235
:103FE000704730B40568AC6C4FEA144C4FEA0C4C87
:103FF0009BB24CEA0303AB6403684FF4FE44DC60FD
:104000000368D96403681A6530BC704710B4016A4C
:104010000268536923F443030B4353614369C26944
:10402000134302691343826913430168784A91423A
:1040300000F08D8002F18052914200F0888002F100
:1040400070428032914200F0828002F180529142AF
:104050007DD002F170428032914278D002F18052DC
:10406000914274D002F17042803291426FD002F1DD
:10407000805291426BD002F170428032914266D000
:1040800002F18052914262D002F17042803291423C
:104090005DD002F18052914259D002F170428032DB
:1040A000914254D002F18052914250D002F17042BC
:1040B000803291424BD002F18052914247D002F1BE
:1040C00070428032914242D002F1805291423ED001
:1040D00002F170428032914239D002F18052914215
:1040E00035D002F170428032914230D002F18052DC
:1040F00091422CD002F170428032914227D002F1DD
:104100008052914223D002F17042803291421ED0FF
:1041100002F1805291421AD002F1704280329142F3
:1041200015D002F18052914211D002F170428032DA
:1041300091420CD002F18052914208D002F17042BB
:104140008032914203D002F1805291420FD1826AB3
:10415000013A120502F07C72C46A44EA020C426A17
:10416000013A120102F47C724CEA020213430A6C17
:1041700002F0802213430B648368426802F07F02DE
:104180001343026B1343C268B2F5806F44D0B2F59B
:10419000007F00F0D78001684A6C22F0434222F48D
:1041A0007F1222F4676222F00F0213434B6403680C
:1041B00000229A640368174A93421ED002F180528B
:1041C00093421AD002F170428032934215D002F12C
:1041D0008052934211D002F17042803293420CD04F
:1041E00002F18052934208D002F170428032934231
:1041F00003D002F18052934203D100225A65036832
:104200009A6503680022DA675DF8044B704700BFC7
:10421000500002405006024002684C498A4200F0B9
:104220008E8001F180518A4200F0898001F1704155
:1042300080318A4200F0838001F180518A427ED031
:1042400001F1704180318A4279D001F180518A4276
:1042500075D001F1704180318A4270D001F18051F6
:104260008A426CD001F1704180318A4267D001F1FD
:1042700080518A4263D001F1704180318A425ED020
:1042800001F180518A425AD001F1704180318A4255
:1042900055D001F180518A4251D001F170418031F5
:1042A0008A424CD001F180518A4248D001F17041DC
:1042B00080318A4243D001F180518A423FD001F1DE
:1042C000704180318A423AD001F180518A4236D021
:1042D00001F1704180318A4231D001F180518A422E
:1042E0002DD001F1704180318A4228D001F18051F6
:1042F0008A4224D001F1704180318A421FD001F1FD
:1043000080518A421BD001F1704180318A4216D01F
:1043100001F180518A4212D001F1704180318A420C
:104320000DD001F180518A4209D001F170418031F4
:104330008A4204D001F180518A427FF42CAF43F4C9
:10434000806328E743F4007325E700BF5000024074
:1043500038B50446FCF740FD3CB30546226800230F
:1043600084F84C30022384F85430536943F0060338
:10437000536123685B6913F0010F0BD0FCF72CFD30
:10438000431B052BF5D91023A365032384F8543070
:10439000012009E02046FFF739FE636B236500200A
:1043A000A065012384F8543038BD0120FCE70028C3
:1043B00036D010B5044690F84C00012832D00120C8
:1043C00084F84C0094F85400C0B2012806D0402371
:1043D000A365002384F84C30012010BD022084F82E
:1043E00054000020A0652046FFF7FBFD22685369BA
:1043F00043F4BA435361636E23B12268536943F4B3
:1044000000735361236F23B12268536943F400534F
:1044100053612268536943F0010353610020DCE7D4
:10442000012070470220D8E738B50446FCF7D4FCD9
:10443000002C4DD0054694F85430DBB2022B06D048
:104440002023A365002384F84C30012038BD226866
:10445000536943F004035361052384F854302368FF
:104460001A6912F4005F17D1FCF7B6FC431B052B49
:10447000F5D9A36D43F01003A365032384F85430EA
:10448000236D13F0800F02D0636F01221A73002393
:1044900084F84C300120D9E75A6942F002025A618F
:1044A000042384F8543023684FF4FE42DA60012379
:1044B00084F85430236D13F0800F05D0636F012210
:1044C0001A73236800229A64002084F84C00BDE728
:1044D0000120BBE7A0B190F85430DBB2022B03D02F
:1044E0002023836501207047042380F8543002683C
:1044F000536943F4005343F00403536100207047B1
:104500000120704710B50446026822F47F6020F055
:104510000F00C2F30B03503BC3F3C413012101FA94
:1045200003F3C168194200F0C580136913F4806F6A
:104530000AD0536913F4806F06D04FF48063D360C0
:10454000A36D43F00103A36523681A6912F4006F99
:104550000AD05A6912F4006F06D04FF40062DA6094
:10456000A36D43F00203A36523681A6912F4805F08
:104570000AD05A6912F4805F06D04FF48052DA6094
:10458000A36D43F00403A36523681A6912F4804FF6
:104590000AD05A6912F4804F06D04FF48042DA6094
:1045A000A36D43F00803A36523681A6912F4007F22
:1045B0000AD05A6912F4007F06D04FF40072DA6014
:1045C000636E0BB12046984723681A6912F4005FA6
:1045D00012D05A6912F4005F0ED04FF40052DA6024
:1045E00094F85430DBB2042B1DD0052384F85430EA
:1045F000236F0BB12046984723681A6912F4807F15
:1046000040D05A6912F4807F3CD0226D12F0800FA6
:1046100028D0DA6F5ABB9B6C4BBB012384F8543013
:10462000626F137323E02268536923F400535361CC
:104630002268536943F002035361012384F8543024
:10464000236D13F0800F05D0636F01221A73236866
:1046500000229A64002384F84C30E36E53B3204662
:10466000984727E09B6C13B9012384F854302368E2
:104670004FF44072DA60002384F84C30236E0BB1A3
:1046800020469847A36DABB12268536943F00203FB
:104690005361012384F85430236D13F0800F02D04E
:1046A000636F01221A73002384F84C30A36E0BB1A0
:1046B0002046984710BD806D7047E8B1036823F429
:1046C0007F6222F00F02C3F30B03503BC3F3C4130A
:1046D0000120984011F0100F10D001F011011129A4
:1046E00005D0536823EA00035360002070475368E5
:1046F000034353600020704701207047002070473B
:10470000816BC36B19430368674A934200F08D8045
:1047100002F18052934200F0888002F170428032B0
:10472000934200F0828002F1805293427DD002F1E8
:1047300070428032934278D002F18052934274D01A
:1047400002F17042803293426FD002F18052934264
:104750006BD002F170428032934266D002F18052F7
:10476000934262D002F17042803293425DD002F1F6
:104770008052934259D002F170428032934254D019
:1047800002F18052934250D002F170428032934243
:104790004BD002F18052934247D002F170428032F6
:1047A000934242D002F1805293423ED002F17042D5
:1047B0008032934239D002F18052934235D002F1D7
:1047C00070428032934230D002F1805293422CD01A
:1047D00002F170428032934227D002F1805293421C
:1047E00023D002F17042803293421ED002F18052F7
:1047F00093421AD002F170428032934215D002F1F6
:104800008052934211D002F17042803293420CD018
:1048100002F18052934208D002F1704280329342FA
:1048200003D002F18052934201D1026C11435A69C4
:1048300022F443020A435A610268002313640268A7
:10484000416C5164026893640268D3640268136522
:104850000368164A93421ED002F1805293421AD046
:1048600002F170428032934215D002F1805293429D
:1048700011D002F17042803293420CD002F180528A
:10488000934208D002F170428032934203D002F189
:104890008052934203D100225A6503689A650368E7
:1048A0000022DA67704700BF500002405006024005
:1048B00010B44369C2691343C26B134302691343C3
:1048C000826913430B60026812F0200F16D0C26A8F
:1048D000846B2243846A04F1FF3C4FEA0C5C0CF0C9
:1048E0007C7C42EA0C02446A04F1FF3C4FEA0C1C57
:1048F0000CF47C7C42EA0C0213430B60036B4268AD
:1049000022F4C0729205920D13434B60C268B2F557
:10491000806F64D0B2F5007F69D0436C4BB1026CFC
:104920001343826C120402F47C1213434A6813434B
:104930004B60B0F868308B60026812F0020F20D034
:10494000C26C02F1FF3C434A02EA0C4213438B6003
:10495000026D002A4FDB8B60436D002B4FDB8B68B1
:1049600023F000538B60836D002B4DDB8B6823F0AD
:1049700080438B60C36D002B4BDB8B6823F00043BF
:104980008B60036ECB60436E0B61036813F0020F04
:104990001AD0036D002B41DBC3F30C034B61436D55
:1049A000002B40DB4A692C4C04EA03431A434A615A
:1049B000836D002B3FDB9BB28B61C36D002B3EDB15
:1049C0008A6942EA03428A6103680B6213F0020FAC
:1049D0003BD043F4E0630B625DF8044B7047026820
:1049E00012F0200F99D043F480634B6095E743F4B5
:1049F00000734B6091E743F080538B60ACE78B68AA
:104A000043F000538B60AEE78B6843F080438B60CC
:104A1000B0E78B6843F000438B60B2E75B42C3F3BF
:104A20000C034B61BBE75B424A690B4C04EA03434E
:104A30001A434A61BCE75B429BB28B61BDE75B42B4
:104A40008A6942EA03428A61BEE743F4A0630B62CB
:104A5000C2E700BF0000FF070000FF1F844640EAD6
:104A60000103134330B183EA0C03B3F5803F0AD24C
:104A70000020704709B18C46F5E70AB19446F2E789
:104A80004FF0000CEFE70120704768B190F820303C
:104A900019B191F82010994210D18AB192F82020D2
:104AA0009A420FD10020704711B191F82030F0E701
:104AB00012B192F82030EBE70023E9E702207047BB
:104AC0000020704703207047036A13F0020F06D0DE
:104AD00009B1064B0B6042B107231360704709B15F
:104AE000034B0B600AB1052313607047000001FE01
:104AF000000001F830B5844615680C46E1B14FF06E
:104B0000000E7146734627E0BCF8020001EB00403E
:104B100050F825008E464FF6FC7101400133DCF859
:104B2000080098422AD9002BEED1DCF8001021F0C1
:104B300003010904090CF1E74FF0000E71467346BA
:104B4000EDE7BCF8020001EB004050F825008E466E
:104B50004FF6FC7101400133DCF8080098420DD992
:104B60004FF6FC702040884208D0002BE9D1DCF8D9
:104B7000001021F003010904090CECE72CB124F02A
:104B800003042404240C8C4218D19360BCF8023036
:104B90004EEA03435360BCF8023041EA0341D1605E
:104BA00051F8250058B120F003000004000CBCF8B7
:104BB000023040EA03401061002000E0012030BDD7
:104BC00038B50446FCF708F93CB3054622680023D3
:104BD00084F84C30022384F85430536943F00603C0
:104BE000536123685B6913F0010F0BD0FCF7F4F8F5
:104BF000431B052BF5D91023A365032384F85430F8
:104C0000012009E02046FFF77BFDA36C236500200F
:104C1000A065012384F8543038BD0120FCE700284A
:104C20005ED010B582B00446416F00295AD090F88A
:104C30005430DBB20268526902F48032012B03D097
:104C4000022B46D1002A44D094F85430DBB2012B19
:104C500007D02268536943F001035361002002B07A
:104C600010BD94F84C30012B3ED0012384F84C3019
:104C7000022384F854300B730023A365626F136121
:104C80002268536943F4BA435361636E23B12268C7
:104C9000536943F400735361236F23B1226853694E
:104CA00043F400535361636F002201A91868FFF7B2
:104CB0000BFF636F22685B881B041360636F1B68C4
:104CC00023F003031B041B0C226801990B43D367D9
:104CD000BFE74023A365002384F84C300120BEE7E2
:104CE000012070470120BAE70220B8E728B108B5D3
:104CF00029B1FFF7DDFD002008BD0120704701202C
:104D0000FAE7002800F08580F0B589B00D4614461A
:104D10000646002A7FD04369012B0ED0076838462B
:104D2000FFF79CFE68B9224629463846FFF7ADFEDC
:104D300060B104233361012006E0042303610120F4
:104D400002E005233361012009B0F0BD0223337373
:104D50000023336106AA07A92046FFF7B5FE336892
:104D6000DBB165B3069B019301AA29463046FFF7E4
:104D7000C1FE002849D1B368039A9A4231D0069BFC
:104D800055F8232044F8232024F003042404240CA1
:104D9000079A144345F823401BE065B1356024F0C1
:104DA00003042404240C079B1C43069B45F8234062
:104DB0000223B36010E034600123B3600CE023F001
:104DC00003031B041B0C079A1343069A44F8223072
:104DD0003460B3680133B360002030610123337362
:104DE000B2E7736843B123F003031B041B0C079A5B
:104DF0001343069A44F822304FF6FC732340079A77
:104E00001343069A45F82230E3E706233361012075
:104E10009AE701207047012096E7002839D030B585
:104E200089B00446006840B1636853B1984232D0FB
:104E300004232361012009B030BD02232361012036
:104E4000F9E76369012B20D0022323730025256134
:104E500006AA07A9FFF738FE069B019301AA294677
:104E60002046FFF747FE236823F003031B041B0CB7
:104E7000079A1343049A069942F821302368636025
:104E80002561012323732846D5E7042323610120EC
:104E9000D1E7012070470020CDE7000084460028BC
:104EA0005AD000295AD090F85430DAB290F85430E1
:104EB000DBB2022B37D0052A35D00B7BDBB2022BBD
:104EC00039D00368264A934223D002F1805293429C
:104ED0001FD002F17042803293421AD002F1805208
:104EE000934216D002F170428032934211D002F107
:104EF000805293420DD002F170428032934208D02A
:104F000002F18052934204D00B681B6A13F0020F27
:104F100014D1DCF85030812B14D04B68A3B104239A
:104F20000B61012070474023CCF8583000238CF8E7
:104F30004C300120704701200861704703230B614A
:104F4000012070474B681BB1CCF8741000207047EB
:104F500004230B6101207047012070470120704736
:104F600050060240244BDB6B03F44033834219D0DC
:104F7000B0F5803F20D9204AD36823F4E0230343CF
:104F800043F48023D3601D4B1B681D4AA2FB03130F
:104F90009B09322101FB03F3A2FB03239B0901338D
:104FA0001A4611E0B0F5803F04D9134AD36843F4A0
:104FB0008023D360002070470F4AD36823F4E02396
:104FC0000343D360DFE7013A0B49C96811F4004F8E
:104FD00001D1002AF7D112B903207047013B064ADC
:104FE000D26B12F4004F01D1002BF7D10BB100208E
:104FF00070470320704700BF0008024608000020E9
:10500000D34D6210024BD86B00F44030704700BFA4
:1050100000080246174B1B68174AA2FB03139B09A3
:10502000322101FB03F3A2FB03239B09013380B967
:1050300012498A6822F002028A6000E0013B0F4AAE
:10504000D26B12F0020F01D0002BF7D183B10020F8
:1050500070470A498A6842F002028A6000E0013B18
:10506000064AD26B12F0020FF0D1002BF7D1EDE718
:105070000320704708000020D34D6210000802464C
:10508000024A136943F00053136170470008024657
:10509000024AD36A43F00103D36270470008024614
:1050A000074B1B6813F0010F07D1054A136823F063
:1050B000040303431360002070470120704700BFC2
:1050C00000040340034A136843F001031360002007
:1050D000704700BF000403407047000090F83D3067
:1050E000DBB2012B4CD1022380F83D300268D3683B
:1050F00043F00103D3600368244A934232D002F1A3
:10510000805293422ED0B3F1804F2BD0B3F1A04FF9
:1051100028D01F4A934225D002F18052934221D0D9
:105120001C4A93421ED002F1805293421AD01A4A6E
:10513000934217D002F18052934213D0174A934200
:1051400010D002F1805293420CD0154A934209D0FC
:1051500002F18052934205D01A6842F001021A60AF
:105160000020704799680F4A0A40062A0AD0B2F513
:10517000803F09D01A6842F001021A60002070478F
:10518000012070470020704700207047002C01402C
:105190000004004000080040000C004000340140C2
:1051A000004001400700010070477047704770479A
:1051B00070B505460368DE681C6914F0020F10D054
:1051C00016F0020F0DD06FF002021A61012303776F
:1051D00003689B6913F0030F7CD0FFF7E6FF002301
:1051E0002B7714F0040F12D016F0040F0FD02B6899
:1051F0006FF004021A6102232B772B689B6913F46A
:10520000407F6DD02846FFF7D0FF00232B7714F0A6
:10521000080F12D016F0080F0FD02B686FF008029D
:105220001A6104232B772B68DB6913F0030F5ED020
:105230002846FFF7BAFF00232B7714F0100F12D087
:1052400016F0100F0FD02B686FF010021A610823B0
:105250002B772B68DB6913F4407F4FD02846FFF78C
:10526000A4FF00232B7714F0010F02D016F0010FDA
:105270004BD114F4025F02D016F0800F4DD114F41C
:10528000807F02D016F0800F4FD114F0400F02D073
:1052900016F0400F51D114F0200F02D016F0200F5D
:1052A00053D114F4801F02D016F4801F55D114F48A
:1052B000001F02D016F4001F57D114F4800F02D043
:1052C00016F4800F59D114F4000F02D016F4000F19
:1052D0005BD170BDFFF768FF2846FFF767FF7EE7E9
:1052E0002846FFF761FF2846FFF760FF8DE7284655
:1052F000FFF75AFF2846FFF759FF9CE72846FFF7BC
:1053000053FF2846FFF752FFABE72B686FF001020F
:105310001A612846FBF718FAABE72B686FF40252C4
:105320001A61284600F025F9A9E72B686FF480720E
:105330001A61284600F01EF9A7E72B686FF04002BB
:105340001A612846FFF733FFA5E72B686FF02002AC
:105350001A61284600F00CF9A3E72B686FF480125D
:105360001A61284600F007F9A1E72B686FF40012D4
:105370001A61284600F000F99FE72B686FF480025D
:105380001A61284600F0F9F89DE72B686FF40002D7
:105390001A61284600F0F2F89BE700000368544ABF
:1053A000904225D002F18052904221D0B0F1804F3E
:1053B0001ED0B0F1A04F1BD04E4A904218D002F13F
:1053C0008052904214D04C4A904211D002F1805247
:1053D00090420DD0494A90420AD002F18052904248
:1053E00006D0474A904203D002F18052904203D146
:1053F00023F070034A6813433D4A90423AD002F1C9
:105400008052904236D0B0F1804F33D0B0F1A04FEF
:1054100030D0384A90422DD002F18052904229D0AB
:10542000354A904226D002F18052904222D0334A2F
:1054300090421FD002F1805290421BD0304A9042DD
:1054400018D002F18052904214D02E4A904211D0CE
:1054500002F1805290420DD02B4A90420AD002F1C4
:105460008052904206D0294A904203D002F18052E5
:10547000904203D123F44073CA68134323F080039E
:105480004A69134303608B68C3620B688362184BDD
:1054900098421FD003F1805398421BD0184B98427A
:1054A00018D003F18053984214D0164B984211D073
:1054B00003F1805398420DD0134B98420AD003F168
:1054C0008053984206D0114B984203D003F1805389
:1054D000984201D10B69036301234361036913F00F
:1054E000010F03D0036923F001030361704700BF7C
:1054F000002C01400004004000080040000C004067
:105500000034014000400140004401400048014097
:1055100060B310B5044690F83D3013B3022384F80D
:105520003D30214651F8040BFFF738FF012384F882
:10553000483084F83E3084F83F3084F8403084F8B6
:10554000413084F8423084F8433084F8443084F8A1
:10555000453084F8463084F8473084F83D300020E8
:1055600010BD80F83C30FFF7B7FDD7E7012070474A
:1055700070477047704770477047704770470268C0
:1055800052E8003F23F0C00342E800310029F6D181
:10559000026802F1080353E8003F23F400030832D5
:1055A00042E800310029F3D12023C0F88830704749
:1055B000026852E8003F23F4907342E8003100296A
:1055C000F6D1026802F1080353E8003F23F080534C
:1055D00023F00103083242E800310029F1D1C36E03
:1055E000012B06D02023C0F88C300023C36643670C
:1055F0007047026852E8003F23F0100342E8003190
:105600000029F6D1EEE70000D0F88830202B62D1D7
:1056100010B50446002960D0002A60D00165A0F8CA
:105620005420A0F856200023C0F890302123C0F861
:105630008830C36F002B3DD02A491966C36F2A49B1
:105640005966C36F29499966C36F0021D96683687B
:10565000B3F5805F20D0E06F036D13F0800F21D091
:10566000436F8BB11B687BB19A60226DE36F5B6FF8
:105670001B68DA6023682833E26F526F1268136187
:10568000E06FFFF7CCFAA8B11023C4F890302023C4
:10569000C4F88830012010BD0369002BDBD1520013
:1056A00092B2D8E72168134601F12802216DFEF776
:1056B0007EFEE8E7236840221A62226802F10803AE
:1056C00053E8003F43F08003083242E800310029EC
:1056D000F3D10020DFE7022070470120DBE7012043
:1056E000D9E700BFA5570008F7570008075800087A
:1056F00038B50446D0F88820D0F88C5003689B68F1
:1057000013F0800F01D0212A08D023689B6813F082
:10571000400F44D0222D20D0002041E0226802F129
:10572000080353E8003F23F08003083242E80031C9
:105730000029F3D1E06F10B1FEF776FE18B92046CC
:10574000FFF71DFFE1E7E06FFEF7B5FF1028F6D188
:105750001023C4F89030032022E0226802F10803ED
:1057600053E8003F23F04003083242E800310029AB
:10577000F3D1D4F8800010B1FEF756FE20B92046D0
:10578000FFF716FF00200BE0D4F88000FEF793FF30
:105790001028F4D11023C4F89030032000E000203A
:1057A00038BD704710B5C46D036D812B0CD000233C
:1057B000A4F85630226852E8003F43F0400342E824
:1057C00000310029F6D110BD2046FFF7EAFFFAE7C5
:1057D00008B5026852E8003F23F0400342E8003178
:1057E0000029F6D12023C0F8883000238367FFF713
:1057F000D8FF08BD704708B5C06DFFF7FBFF08BDB7
:1058000070477047704738B5C46DD4F88820D4F815
:105810008C5023689B6813F0800F01D0212A10D090
:1058200023689B6813F0400F01D0222D10D0D4F8CC
:10583000903043F01003C4F890302046FFF7E2FFA9
:1058400038BD0023A4F856302046FFF798FEE7E75E
:105850000023A4F85E302046FFF7AAFEE7E708B56C
:10586000C06D0023A0F85E30A0F85630FFF7CAFFE5
:1058700008BD704770B504460268D3691168906826
:1058800040F60F0C13EA0C0F0DD113F0200F10D0BF
:1058900011F0200F02D110F0805F0AD0636F5BB36C
:1058A0002046984728E0AD4D054026D1AC4E314208
:1058B00023D1E56E012D00F0AC8013F0800F07D0EE
:1058C00011F0800F40F0368110F4000F40F032816B
:1058D00013F0400F03D011F0400F40F0328113F469
:1058E000000F03D011F0804F40F02F8113F0807F24
:1058F00002D00029C0F22D8170BD13F0010F09D034
:1059000011F4807F06D001261662D4F8902032432D
:10591000C4F8902013F0020F0BD010F0010F08D044
:10592000226802261662D4F8902042F00402C4F8DD
:10593000902013F0040F0BD010F0010F08D0226854
:1059400004261662D4F8902042F00202C4F8902097
:1059500013F0080F0BD011F0200F00D13DB12268D9
:1059600008251562D4F890202A43C4F8902013F437
:10597000006F0CD011F0806F09D022684FF40065E1
:105980001562D4F8902042F02002C4F89020D4F898
:105990009020002AB0D013F0200F09D011F0200F72
:1059A00002D110F0805F03D0636F0BB1204698479F
:1059B000D4F8902023689B6813F0400F02D112F0B6
:1059C000280F1FD02046FFF7F3FD23689B6813F0D4
:1059D000400F13D0D4F8803063B1624ADA66D4F84D
:1059E0008000FEF777FD002886D0D4F88000C36ED3
:1059F000984781E72046FFF705FF7DE72046FFF740
:105A000001FF79E72046FFF7FDFE0023C4F8903040
:105A100072E713F0100F3FF450AF11F0100F3FF486
:105A20004CAF1023136223689B6813F0400F45D0DE
:105A3000D4F8802013689B6C9BB2002B3FF45CAFC2
:105A4000B4F85C1099427FF657AFA4F85E30136D3E
:105A5000812B26D0226852E8003F23F4807342E86D
:105A600000310029F6D1226802F1080353E8003F13
:105A700023F00103083242E800310029F3D120234A
:105A8000C4F88C300023E366226852E8003F23F01C
:105A9000100342E800310029F6D1D4F88000FEF767
:105AA000C3FC02232367B4F85C10B4F85E309BB2E9
:105AB000C91A89B22046FFF7DCFE1DE7B4F85C1076
:105AC000B4F85E309BB2C91A89B2B4F85E309BB2AA
:105AD000002B3FF411AF00293FF40EAF226852E8CB
